{
  "contractName": "Transactions",
  "abi": [
    {
      "anonymous": false,
      "inputs": [
        {
          "indexed": false,
          "internalType": "string",
          "name": "name",
          "type": "string"
        },
        {
          "indexed": false,
          "internalType": "string",
          "name": "ID",
          "type": "string"
        },
        {
          "indexed": false,
          "internalType": "uint256",
          "name": "gCO2",
          "type": "uint256"
        },
        {
          "indexed": false,
          "internalType": "uint256",
          "name": "quantity",
          "type": "uint256"
        }
      ],
      "name": "newMateriaPrima",
      "type": "event"
    },
    {
      "anonymous": false,
      "inputs": [
        {
          "indexed": false,
          "internalType": "string",
          "name": "name",
          "type": "string"
        },
        {
          "indexed": false,
          "internalType": "string",
          "name": "ID",
          "type": "string"
        },
        {
          "indexed": false,
          "internalType": "uint256",
          "name": "sommaCO2",
          "type": "uint256"
        },
        {
          "indexed": false,
          "internalType": "string[]",
          "name": "productsUsedToProcessID",
          "type": "string[]"
        },
        {
          "indexed": false,
          "internalType": "uint256[]",
          "name": "quantityForUsedProducts",
          "type": "uint256[]"
        },
        {
          "indexed": false,
          "internalType": "uint256",
          "name": "quantity",
          "type": "uint256"
        }
      ],
      "name": "newProdottoTrasformato",
      "type": "event"
    },
    {
      "anonymous": false,
      "inputs": [
        {
          "indexed": false,
          "internalType": "uint256",
          "name": "gCO2",
          "type": "uint256"
        }
      ],
      "name": "returnCO2",
      "type": "event"
    },
    {
      "inputs": [
        {
          "internalType": "uint256",
          "name": "",
          "type": "uint256"
        }
      ],
      "name": "productIDs",
      "outputs": [
        {
          "internalType": "string",
          "name": "",
          "type": "string"
        }
      ],
      "stateMutability": "view",
      "type": "function",
      "constant": true
    },
    {
      "inputs": [
        {
          "internalType": "string",
          "name": "_name",
          "type": "string"
        },
        {
          "internalType": "string",
          "name": "_ID",
          "type": "string"
        },
        {
          "internalType": "uint256",
          "name": "_gCO2",
          "type": "uint256"
        },
        {
          "internalType": "uint256",
          "name": "_quantity",
          "type": "uint256"
        }
      ],
      "name": "addMateriaPrima",
      "outputs": [],
      "stateMutability": "nonpayable",
      "type": "function"
    },
    {
      "inputs": [
        {
          "internalType": "string",
          "name": "_name",
          "type": "string"
        },
        {
          "internalType": "string",
          "name": "_ID",
          "type": "string"
        },
        {
          "internalType": "uint256",
          "name": "_gCO2_production",
          "type": "uint256"
        },
        {
          "internalType": "string[]",
          "name": "_productsUsedToProcessID",
          "type": "string[]"
        },
        {
          "internalType": "uint256[]",
          "name": "_quantityForUsedProducts",
          "type": "uint256[]"
        },
        {
          "internalType": "uint256",
          "name": "_quantity",
          "type": "uint256"
        }
      ],
      "name": "addProdottoTrasformato",
      "outputs": [],
      "stateMutability": "nonpayable",
      "type": "function"
    },
    {
      "inputs": [
        {
          "internalType": "string",
          "name": "_ID",
          "type": "string"
        }
      ],
      "name": "getProductByID",
      "outputs": [
        {
          "internalType": "string",
          "name": "",
          "type": "string"
        },
        {
          "internalType": "string",
          "name": "",
          "type": "string"
        },
        {
          "internalType": "uint256",
          "name": "",
          "type": "uint256"
        },
        {
          "internalType": "bool",
          "name": "",
          "type": "bool"
        },
        {
          "internalType": "string[]",
          "name": "",
          "type": "string[]"
        },
        {
          "internalType": "uint256[]",
          "name": "",
          "type": "uint256[]"
        },
        {
          "internalType": "uint256",
          "name": "",
          "type": "uint256"
        }
      ],
      "stateMutability": "view",
      "type": "function",
      "constant": true
    },
    {
      "inputs": [
        {
          "internalType": "string",
          "name": "_ID",
          "type": "string"
        }
      ],
      "name": "getCO2ByID",
      "outputs": [
        {
          "internalType": "uint256",
          "name": "",
          "type": "uint256"
        }
      ],
      "stateMutability": "view",
      "type": "function",
      "constant": true
    },
    {
      "inputs": [
        {
          "internalType": "string",
          "name": "_ID",
          "type": "string"
        }
      ],
      "name": "getCO2ByIDEvent",
      "outputs": [],
      "stateMutability": "nonpayable",
      "type": "function"
    },
    {
      "inputs": [
        {
          "internalType": "string",
          "name": "_ID",
          "type": "string"
        }
      ],
      "name": "idExist",
      "outputs": [
        {
          "internalType": "bool",
          "name": "",
          "type": "bool"
        }
      ],
      "stateMutability": "view",
      "type": "function",
      "constant": true
    },
    {
      "inputs": [],
      "name": "listItems",
      "outputs": [
        {
          "internalType": "string",
          "name": "",
          "type": "string"
        }
      ],
      "stateMutability": "view",
      "type": "function",
      "constant": true
    }
  ],
  "bytecode": "0x608060405273513cd7f2bbbb9c125534ad79b1a641cd0192a4456000806101000a81548173ffffffffffffffffffffffffffffffffffffffff021916908373ffffffffffffffffffffffffffffffffffffffff16021790555034801561006457600080fd5b50611ed5806100746000396000f3fe608060405234801561001057600080fd5b50600436106100885760003560e01c80638cbb10321161005b5780638cbb10321461012d578063c2f12db41461015d578063f2d1416514610179578063fc218179146101a957610088565b8063355eefc81461008d5780633f8041b4146100ab5780637dbfa21b146100c75780638955a837146100f7575b600080fd5b6100956101c5565b6040516100a29190611056565b60405180910390f35b6100c560048036038101906100c09190611257565b6102ec565b005b6100e160048036038101906100dc91906112fb565b610497565b6040516100ee9190611353565b60405180910390f35b610111600480360381019061010c91906112fb565b6104c2565b6040516101249796959493929190611553565b60405180910390f35b610147600480360381019061014291906112fb565b61081a565b60405161015491906115de565b60405180910390f35b610177600480360381019061017291906112fb565b6108a9565b005b610193600480360381019061018e91906115f9565b610904565b6040516101a09190611056565b60405180910390f35b6101c360048036038101906101be91906117ca565b6109b0565b005b60608060005b6004805490508110156102e45781600482815481106101ed576101ec6118cd565b5b906000526020600020016102ae6102a960048581548110610211576102106118cd565b5b9060005260206000200180546102269061192b565b80601f01602080910402602001604051908101604052809291908181526020018280546102529061192b565b801561029f5780601f106102745761010080835404028352916020019161029f565b820191906000526020600020905b81548152906001019060200180831161028257829003601f168201915b5050505050610497565b610c23565b6040516020016102c093929190611ac4565b604051602081830303815290604052915080806102dc90611b3a565b9150506101cb565b508091505090565b60008054906101000a900473ffffffffffffffffffffffffffffffffffffffff1673ffffffffffffffffffffffffffffffffffffffff163373ffffffffffffffffffffffffffffffffffffffff161461034457600080fd5b61039184848080601f016020809104026020016040519081016040528093929190818152602001838380828437600081840152601f19601f8201169050808301925050505050505061081a565b1561039b57600080fd5b6000600385856040516103af929190611ba7565b90815260200160405180910390209050858160000190805190602001906103d7929190610d83565b5084848260010191906103eb929190610e09565b5082816002018190555060008160030160006101000a81548160ff021916908315150217905550600485859091806001815401808255809150506001900390600052602060002001600090919290919290919290919250919061044f929190610e09565b507fc8cf83516c303d94ec45ce39825095bf9f50e1d5c629948030012607bba8ac438686868686604051610487959493929190611bed565b60405180910390a1505050505050565b60006003826040516104a99190611c42565b9081526020016040518091039020600201549050919050565b60608060008060608060006003886040516104dd9190611c42565b90815260200160405180910390206000016003896040516104fe9190611c42565b908152602001604051809103902060010160038a60405161051f9190611c42565b90815260200160405180910390206002015460038b6040516105419190611c42565b908152602001604051809103902060030160009054906101000a900460ff1660038c6040516105709190611c42565b908152602001604051809103902060040160038d6040516105919190611c42565b908152602001604051809103902060050160038e6040516105b29190611c42565b9081526020016040518091039020600601548680546105d09061192b565b80601f01602080910402602001604051908101604052809291908181526020018280546105fc9061192b565b80156106495780601f1061061e57610100808354040283529160200191610649565b820191906000526020600020905b81548152906001019060200180831161062c57829003601f168201915b5050505050965085805461065c9061192b565b80601f01602080910402602001604051908101604052809291908181526020018280546106889061192b565b80156106d55780601f106106aa576101008083540402835291602001916106d5565b820191906000526020600020905b8154815290600101906020018083116106b857829003601f168201915b5050505050955082805480602002602001604051908101604052809291908181526020016000905b828210156107a957838290600052602060002001805461071c9061192b565b80601f01602080910402602001604051908101604052809291908181526020018280546107489061192b565b80156107955780601f1061076a57610100808354040283529160200191610795565b820191906000526020600020905b81548152906001019060200180831161077857829003601f168201915b5050505050815260200190600101906106fd565b505050509250818054806020026020016040519081016040528092919081815260200182805480156107fa57602002820191906000526020600020905b8154815260200190600101908083116107e6575b505050505091509650965096509650965096509650919395979092949650565b6000806001905060405160200161083090611c7f565b604051602081830303815290604052805190602001206003846040516108569190611c42565b90815260200160405180910390206001016040516020016108779190611c94565b604051602081830303815290604052805190602001200361089b57600090506108a0565b600190505b80915050919050565b7f90d476baa1f388d35759aaaff48b9df245ace73d87784d26cf00254eea2145056003826040516108da9190611c42565b9081526020016040518091039020600201546040516108f99190611353565b60405180910390a150565b6004818154811061091457600080fd5b90600052602060002001600091509050805461092f9061192b565b80601f016020809104026020016040519081016040528092919081815260200182805461095b9061192b565b80156109a85780601f1061097d576101008083540402835291602001916109a8565b820191906000526020600020905b81548152906001019060200180831161098b57829003601f168201915b505050505081565b600160009054906101000a900473ffffffffffffffffffffffffffffffffffffffff1673ffffffffffffffffffffffffffffffffffffffff163373ffffffffffffffffffffffffffffffffffffffff1614610a0a57600080fd5b610a5786868080601f016020809104026020016040519081016040528093929190818152602001838380828437600081840152601f19601f8201169050808301925050505050505061081a565b15610a6157600080fd5b600060038787604051610a75929190611ba7565b9081526020016040518091039020905087816000019080519060200190610a9d929190610d83565b508686826001019190610ab1929190610e09565b506000805b8551811015610b2757848181518110610ad257610ad16118cd565b5b6020026020010151610afd878381518110610af057610aef6118cd565b5b6020026020010151610497565b610b079190611cab565b82610b129190611d05565b91508080610b1f90611b3a565b915050610ab6565b508581610b349190611d05565b905080826002018190555060018260030160006101000a81548160ff02191690831515021790555084826004019080519060200190610b74929190610e8f565b5083826005019080519060200190610b8d929190610eef565b508282600601819055506004888890918060018154018082558091505060019003906000526020600020016000909192909192909192909192509190610bd4929190610e09565b507faf102bdb7ee7725c1530eea886ac251bd125965775b295f97b09d3695b00199689898984898989604051610c109796959493929190611d5b565b60405180910390a1505050505050505050565b606060008203610c6a576040518060400160405280600181526020017f30000000000000000000000000000000000000000000000000000000000000008152509050610d7e565b600082905060005b60008214610c9c578080610c8590611b3a565b915050600a82610c959190611e09565b9150610c72565b60008167ffffffffffffffff811115610cb857610cb7611096565b5b6040519080825280601f01601f191660200182016040528015610cea5781602001600182028036833780820191505090505b5090505b60008514610d7757600182610d039190611e3a565b9150600a85610d129190611e6e565b6030610d1e9190611d05565b60f81b818381518110610d3457610d336118cd565b5b60200101907effffffffffffffffffffffffffffffffffffffffffffffffffffffffffffff1916908160001a905350600a85610d709190611e09565b9450610cee565b8093505050505b919050565b828054610d8f9061192b565b90600052602060002090601f016020900481019282610db15760008555610df8565b82601f10610dca57805160ff1916838001178555610df8565b82800160010185558215610df8579182015b82811115610df7578251825591602001919060010190610ddc565b5b509050610e059190610f3c565b5090565b828054610e159061192b565b90600052602060002090601f016020900481019282610e375760008555610e7e565b82601f10610e5057803560ff1916838001178555610e7e565b82800160010185558215610e7e579182015b82811115610e7d578235825591602001919060010190610e62565b5b509050610e8b9190610f3c565b5090565b828054828255906000526020600020908101928215610ede579160200282015b82811115610edd578251829080519060200190610ecd929190610d83565b5091602001919060010190610eaf565b5b509050610eeb9190610f59565b5090565b828054828255906000526020600020908101928215610f2b579160200282015b82811115610f2a578251825591602001919060010190610f0f565b5b509050610f389190610f3c565b5090565b5b80821115610f55576000816000905550600101610f3d565b5090565b5b80821115610f795760008181610f709190610f7d565b50600101610f5a565b5090565b508054610f899061192b565b6000825580601f10610f9b5750610fba565b601f016020900490600052602060002090810190610fb99190610f3c565b5b50565b600081519050919050565b600082825260208201905092915050565b60005b83811015610ff7578082015181840152602081019050610fdc565b83811115611006576000848401525b50505050565b6000601f19601f8301169050919050565b600061102882610fbd565b6110328185610fc8565b9350611042818560208601610fd9565b61104b8161100c565b840191505092915050565b60006020820190508181036000830152611070818461101d565b905092915050565b6000604051905090565b600080fd5b600080fd5b600080fd5b600080fd5b7f4e487b7100000000000000000000000000000000000000000000000000000000600052604160045260246000fd5b6110ce8261100c565b810181811067ffffffffffffffff821117156110ed576110ec611096565b5b80604052505050565b6000611100611078565b905061110c82826110c5565b919050565b600067ffffffffffffffff82111561112c5761112b611096565b5b6111358261100c565b9050602081019050919050565b82818337600083830152505050565b600061116461115f84611111565b6110f6565b9050828152602081018484840111156111805761117f611091565b5b61118b848285611142565b509392505050565b600082601f8301126111a8576111a761108c565b5b81356111b8848260208601611151565b91505092915050565b600080fd5b600080fd5b60008083601f8401126111e1576111e061108c565b5b8235905067ffffffffffffffff8111156111fe576111fd6111c1565b5b60208301915083600182028301111561121a576112196111c6565b5b9250929050565b6000819050919050565b61123481611221565b811461123f57600080fd5b50565b6000813590506112518161122b565b92915050565b60008060008060006080868803121561127357611272611082565b5b600086013567ffffffffffffffff81111561129157611290611087565b5b61129d88828901611193565b955050602086013567ffffffffffffffff8111156112be576112bd611087565b5b6112ca888289016111cb565b945094505060406112dd88828901611242565b92505060606112ee88828901611242565b9150509295509295909350565b60006020828403121561131157611310611082565b5b600082013567ffffffffffffffff81111561132f5761132e611087565b5b61133b84828501611193565b91505092915050565b61134d81611221565b82525050565b60006020820190506113686000830184611344565b92915050565b60008115159050919050565b6113838161136e565b82525050565b600081519050919050565b600082825260208201905092915050565b6000819050602082019050919050565b600082825260208201905092915050565b60006113d182610fbd565b6113db81856113b5565b93506113eb818560208601610fd9565b6113f48161100c565b840191505092915050565b600061140b83836113c6565b905092915050565b6000602082019050919050565b600061142b82611389565b6114358185611394565b935083602082028501611447856113a5565b8060005b85811015611483578484038952815161146485826113ff565b945061146f83611413565b925060208a0199505060018101905061144b565b50829750879550505050505092915050565b600081519050919050565b600082825260208201905092915050565b6000819050602082019050919050565b6114ca81611221565b82525050565b60006114dc83836114c1565b60208301905092915050565b6000602082019050919050565b600061150082611495565b61150a81856114a0565b9350611515836114b1565b8060005b8381101561154657815161152d88826114d0565b9750611538836114e8565b925050600181019050611519565b5085935050505092915050565b600060e082019050818103600083015261156d818a61101d565b90508181036020830152611581818961101d565b90506115906040830188611344565b61159d606083018761137a565b81810360808301526115af8186611420565b905081810360a08301526115c381856114f5565b90506115d260c0830184611344565b98975050505050505050565b60006020820190506115f3600083018461137a565b92915050565b60006020828403121561160f5761160e611082565b5b600061161d84828501611242565b91505092915050565b600067ffffffffffffffff82111561164157611640611096565b5b602082029050602081019050919050565b600061166561166084611626565b6110f6565b90508083825260208201905060208402830185811115611688576116876111c6565b5b835b818110156116cf57803567ffffffffffffffff8111156116ad576116ac61108c565b5b8086016116ba8982611193565b8552602085019450505060208101905061168a565b5050509392505050565b600082601f8301126116ee576116ed61108c565b5b81356116fe848260208601611652565b91505092915050565b600067ffffffffffffffff82111561172257611721611096565b5b602082029050602081019050919050565b600061174661174184611707565b6110f6565b90508083825260208201905060208402830185811115611769576117686111c6565b5b835b81811015611792578061177e8882611242565b84526020840193505060208101905061176b565b5050509392505050565b600082601f8301126117b1576117b061108c565b5b81356117c1848260208601611733565b91505092915050565b600080600080600080600060c0888a0312156117e9576117e8611082565b5b600088013567ffffffffffffffff81111561180757611806611087565b5b6118138a828b01611193565b975050602088013567ffffffffffffffff81111561183457611833611087565b5b6118408a828b016111cb565b965096505060406118538a828b01611242565b945050606088013567ffffffffffffffff81111561187457611873611087565b5b6118808a828b016116d9565b935050608088013567ffffffffffffffff8111156118a1576118a0611087565b5b6118ad8a828b0161179c565b92505060a06118be8a828b01611242565b91505092959891949750929550565b7f4e487b7100000000000000000000000000000000000000000000000000000000600052603260045260246000fd5b7f4e487b7100000000000000000000000000000000000000000000000000000000600052602260045260246000fd5b6000600282049050600182168061194357607f821691505b602082108103611956576119556118fc565b5b50919050565b600081905092915050565b600061197282610fbd565b61197c818561195c565b935061198c818560208601610fd9565b80840191505092915050565b7f0a00000000000000000000000000000000000000000000000000000000000000600082015250565b60006119ce60018361195c565b91506119d982611998565b600182019050919050565b60008190508160005260206000209050919050565b60008154611a068161192b565b611a10818661195c565b94506001821660008114611a2b5760018114611a3c57611a6f565b60ff19831686528186019350611a6f565b611a45856119e4565b60005b83811015611a6757815481890152600182019150602081019050611a48565b838801955050505b50505092915050565b7f202d200000000000000000000000000000000000000000000000000000000000600082015250565b6000611aae60038361195c565b9150611ab982611a78565b600382019050919050565b6000611ad08286611967565b9150611adb826119c1565b9150611ae782856119f9565b9150611af282611aa1565b9150611afe8284611967565b9150819050949350505050565b7f4e487b7100000000000000000000000000000000000000000000000000000000600052601160045260246000fd5b6000611b4582611221565b91507fffffffffffffffffffffffffffffffffffffffffffffffffffffffffffffffff8203611b7757611b76611b0b565b5b600182019050919050565b6000611b8e838561195c565b9350611b9b838584611142565b82840190509392505050565b6000611bb4828486611b82565b91508190509392505050565b6000611bcc8385610fc8565b9350611bd9838584611142565b611be28361100c565b840190509392505050565b60006080820190508181036000830152611c07818861101d565b90508181036020830152611c1c818688611bc0565b9050611c2b6040830185611344565b611c386060830184611344565b9695505050505050565b6000611c4e8284611967565b915081905092915050565b50565b6000611c6960008361195c565b9150611c7482611c59565b600082019050919050565b6000611c8a82611c5c565b9150819050919050565b6000611ca082846119f9565b915081905092915050565b6000611cb682611221565b9150611cc183611221565b9250817fffffffffffffffffffffffffffffffffffffffffffffffffffffffffffffffff0483118215151615611cfa57611cf9611b0b565b5b828202905092915050565b6000611d1082611221565b9150611d1b83611221565b9250827fffffffffffffffffffffffffffffffffffffffffffffffffffffffffffffffff03821115611d5057611d4f611b0b565b5b828201905092915050565b600060c0820190508181036000830152611d75818a61101d565b90508181036020830152611d8a81888a611bc0565b9050611d996040830187611344565b8181036060830152611dab8186611420565b90508181036080830152611dbf81856114f5565b9050611dce60a0830184611344565b98975050505050505050565b7f4e487b7100000000000000000000000000000000000000000000000000000000600052601260045260246000fd5b6000611e1482611221565b9150611e1f83611221565b925082611e2f57611e2e611dda565b5b828204905092915050565b6000611e4582611221565b9150611e5083611221565b925082821015611e6357611e62611b0b565b5b828203905092915050565b6000611e7982611221565b9150611e8483611221565b925082611e9457611e93611dda565b5b82820690509291505056fea26469706673582212207d6f7c1c338b253793dc6674da5ee2266641dd64a6214216afc026e5b17a6e0464736f6c634300080d0033",
  "immutableReferences": {},
  "source": "// SPDX-License-Identifier: GPL-3.0\n\npragma solidity >=0.8.0 <0.9.0;\n\nimport \"./Strings.sol\";\n\ncontract Transactions {\n\n\n\n// indirizzi per trasformatore, cliente e produttore\naddress produttore = 0x513Cd7f2bBBB9C125534Ad79B1a641cD0192a445;\naddress trasformatore;\naddress cliente;\n\nstruct Product {\n    string name;    // nome del prodotto\n    string ID;  // identificativo univoco del prodotto (anche numero di lotto)\n    uint gCO2;  // grammi di CO2 usati per produrre o per fare la trasformazione\n    bool isProcessed;   // 0 se  una materia prima, 1 se  un derivato\n    string[] productsUsedToProcessIDs;    // se  un derivato elencare tutti gli ID delle materie prime usate, deve essere un array\n    uint[] quantityForUsedProducts;   // per ogni ID di materia prima indicare la quantit utilizzata, anche questo deve essere un array\n    uint quantity;  //quantit di prodotto, utile anche nel caso in cui per un prodotto finale venga usata solo una parte di un lotto di materia prima\n    }\n\n// mapping della lista di prodotti\nmapping (string => Product) Products;\n\nstring[] public productIDs;\n\nevent newMateriaPrima (string name, string ID, uint gCO2, uint quantity);\nevent newProdottoTrasformato (string name, string ID, uint sommaCO2, string[] productsUsedToProcessID, uint[] quantityForUsedProducts, uint quantity);\nevent returnCO2 (uint gCO2);\n\n\n \n// funzione per aggiungere una nuova transazione (ovvero una nuova materia prima o un nuovo prodotto frutto di lavorazione)\nfunction addMateriaPrima(string memory _name, string calldata _ID,  uint _gCO2, uint _quantity) public {\n       \n       // si assicura che sia soltanto il produttore ad aggiungere nuovi materie prime\n       require(msg.sender == produttore);\n       require(!idExist(_ID));\n       \n      // if(msg.sender == produttore && !idExist(_ID))\n        Product storage prod = Products[_ID];\n        prod.name = _name;\n        prod.ID = _ID;\n        prod.gCO2=_gCO2;\n        prod.isProcessed = false;\n\n        productIDs.push(_ID);\n       \n        emit newMateriaPrima(_name, _ID, _gCO2, _quantity);\n\n    }\n\n// funzione per aggiungere una nuova transazione (ovvero una nuova materia prima o un nuovo prodotto frutto di lavorazione)\nfunction addProdottoTrasformato(string memory _name, string calldata _ID,  uint _gCO2_production, string[] memory _productsUsedToProcessID, uint[] memory _quantityForUsedProducts, uint _quantity) public {\n       \n       // si assicura che sia soltanto il trasformatore ad aggiungere nuovi prodotti \n       // if(msg.sender == trasformatore && !idExist(_ID))\n       require(msg.sender == trasformatore);\n       require(!idExist(_ID));\n       \n        Product storage prod = Products[_ID];\n        prod.name = _name;\n        prod.ID = _ID;\n            \n        uint sommaCO2 = 0;\n        for (uint i = 0; i< _productsUsedToProcessID.length; i++){\n            sommaCO2 = sommaCO2 + (getCO2ByID(_productsUsedToProcessID[i])*_quantityForUsedProducts[i]);\n        }\n        sommaCO2 = sommaCO2 +_gCO2_production;\n        \n        prod.gCO2=sommaCO2;\n        prod.isProcessed = true;\n        prod.productsUsedToProcessIDs = _productsUsedToProcessID;\n        prod.quantityForUsedProducts = _quantityForUsedProducts;\n        prod.quantity = _quantity;\n\n        productIDs.push(_ID);\n       \n        emit newProdottoTrasformato(_name, _ID, sommaCO2, _productsUsedToProcessID, _quantityForUsedProducts, _quantity);\n\n      \n    }\n    \n    \nfunction getProductByID(string memory _ID) view public returns (string memory, string memory, uint, bool, string[] memory, uint[] memory, uint){\n    return (Products[_ID].name, Products[_ID].ID, Products[_ID].gCO2, Products[_ID].isProcessed, Products[_ID].productsUsedToProcessIDs, Products[_ID].quantityForUsedProducts, Products[_ID].quantity);\n    }\n    \nfunction getCO2ByID(string memory _ID) view public returns (uint){\n    return Products[_ID].gCO2;\n    }\n    \nfunction getCO2ByIDEvent(string memory _ID)  public{\n    emit returnCO2(Products[_ID].gCO2);\n    }\n    \nfunction idExist(string memory _ID) view public returns (bool){\n     bool exist = true;\n     if(keccak256(abi.encodePacked(Products[_ID].ID)) == keccak256(abi.encodePacked(\"\"))){\n         exist = false;\n     } else{\n         exist = true;\n     }\n     return (exist);\n    }\n\nfunction listItems() view public returns (string memory){\n        string memory ret;\n        for (uint i = 0; i < productIDs.length; i++) {\n            ret = string( abi.encodePacked(ret, \"\\n\", productIDs[i], \" - \", Strings.toString(getCO2ByID(productIDs[i]))));\n        }\n        return ret;\n    }\n    \n}  \n\n// da fare parsing di productsUsedToProcessIDs, CSV\n",
  "sourcePath": "/Users/tomasrocchetti/Desktop/marketplace/src/contracts/Transactions.sol",
  "compiler": {
    "name": "solc",
    "version": "0.8.13+commit.abaa5c0e.Emscripten.clang"
  },
  "schemaVersion": "3.4.7",
  "updatedAt": "2022-04-19T15:14:05.043Z",
  "networkType": "ethereum",
  "devdoc": {
    "kind": "dev",
    "methods": {},
    "version": 1
  },
  "userdoc": {
    "kind": "user",
    "methods": {},
    "version": 1
  }
}